:020000020000FC
:1000000010E058E067E476E081E798E0ABE2B1E227
:10001000C8E20AD00DD010D013D016D019D01CD001
:100020001FD022D02AD0F5CF0FE70BB955B90895CC
:100030000FEB0BB965B908950FED0BB975B90895BC
:100040000FEE0BB985B9089507EF0BB995B908956F
:100050000BEF0BB9A5B908950DEF0BB9B5B908951C
:100060000EEF0BB9C5B90895562F672F782F892F3A
:100070009A2FAB2FBC2F13950895143131F1113005
:10008000A9F11230A9F11330A9F1143079F115302A
:1000900009F1163089F1173019F1183079F119305A
:1000A000B9F01A3029F11B3019F11C3089F01D30DC
:1000B00089F01E3089F01F3089F0103149F011317C
:1000C00079F0123179F0133179F010E0C8E0089539
:1000D000C8E00895C7E40895C6E00895C1E708950B
:1000E000CBE20895C1E20895C8E20895C1E0089501
:1000F000CFEF0895C6E40895C1E40895C2E20895DB
:00000001FF
