:020000020000FC
:1000000011E058E861EF70EB87EC98E8AAEEBAEFE0
:10001000C1E82BE40CD010D014D018D01CD020D0C4
:1000200024D028D02A95B1F72AD032D0F2CF0FE7CA
:100030000BB955B970D008950FEB0BB965B96BD0FA
:1000400008950FED0BB975B966D008950FEE0BB991
:1000500085B961D0089507EF0BB995B95CD00895C3
:100060000BEF0BB9A5B957D008950DEF0BB9B5B982
:1000700052D008950EEF0BB9C5B94DD00895562F43
:10008000672F782F892F9A2FAB2FBC2F13950895A8
:10009000143131F11130A9F11230A9F11330A9F165
:1000A000143079F1153009F1163089F1173019F152
:1000B000183079F11930B9F01A3029F11B3019F1E3
:1000C0001C3089F01D3089F01E3089F01F3089F016
:1000D000103149F0113179F0123179F0133179F0A2
:1000E00011E0C1E80895C8E80895C1EF0895C0EB94
:1000F0000895C7EC0895CAEE0895C2EC0895CAEFBA
:100100000895C1E80895CFEF0895C1EB0895C1ECBB
:100110000895C1EA089530E544E6000000000000BB
:1001200000000000000000000000000000004A95F0
:08013000A1F73A9589F7089543
:00000001FF
