:020000020000FC
:100000000000000000E011E022E033E044E055E0B1
:1000100066E077E088E099E0AAE0B0E003D034D071
:1000200038D0FCCFB01791F0B11799F0B217A1F00A
:10003000B317A9F0B417B1F0B517B9F0B617C1F0FE
:10004000B717C9F0B817D1F0B917D9F0D1E0D5B9C1
:100050000895DFE4D5B90895D2E1D5B90895D6E081
:10006000D5B90895DCE4D5B90895D4E2D5B9089599
:10007000D0E2D5B90895DFE0D5B90895D0E0D5B97B
:100080000895D4E0D5B90895B395BA1709F4B0E04E
:040090000895089532
:00000001FF
