:020000020000FC
:100000000000000000E011E022E033E044E055E0B1
:1000100066E077E088E099E0B0E0AEEFABB903D0FE
:100020002FD033D0FCCFB01781F0B11789F0B217C1
:1000300091F0B31799F0B417A1F0B517A9F0B6175E
:10004000B1F0B717B9F0B817C1F0C1E0C5B908955C
:10005000CFE4C5B90895C2E1C5B90895C6E0C5B9F0
:100060000895CCE4C5B90895C4E2C5B90895C0E2C5
:10007000C5B90895CFE0C5B90895C0E0C5B90895E0
:0C008000B395B91709F4B0E00895089595
:00000001FF
