:020000020000FC
:100000000000000000E011E022E033E044E055E0B1
:1000100066E077E088E099E0AAE0B0E003D034D071
:1000200038D0FCCFB01791F0B11799F0B217A1F00A
:10003000B317A9F0B417B1F0B517B9F0B617C1F0FE
:10004000B717C9F0B817D1F0B917D9F0C1E0C5B9E1
:100050000895CFE4C5B90895C2E1C5B90895C6E0D1
:10006000C5B90895CCE4C5B90895C4E2C5B90895E9
:10007000C0E2C5B90895CFE0C5B90895C0E0C5B9DB
:100080000895C4E0C5B90895B395BA1709F4B0E06E
:100090000895D8ECE8ECF8EC000000000000000047
:1000A000000000000000000000000000FA95A1F729
:0A00B000EA9589F7DA9571F70895D3
:00000001FF
